:1000000000308A0083280000233084008313000816
:10001000031918280C30F800F701F70B0D28F80B1E
:100020000C28F730F700F70B13281628800B0A2846
:100030000800FF30A0008316880183122008880082
:100040000230A100FA30A3000420A10B22280800EE
:10005000A001831688018312200888000230A100C5
:10006000FA30A3000420A10B30280800A1012108C8
:10007000033C031C5228200DF700F70DFC30F70558
:10008000770803387F39A00083168801831220087F
:1000900088000430A200AF30A3000420A20B4B283C
:1000A000A10A37280800A1012108043C031C6A2882
:1000B0000310200C2038A0000230A200FA30A30068
:1000C0000420A20B5E288316880183122008880072
:1000D000A10A54280800A1012108063C031C82281B
:1000E0000310200CBF39A0000230A200FA30A30098
:1000F0000420A20B7628831688018312200888002A
:10010000A10A6C28080003081F398300831603170F
:100110000908C039890003131F129F12003003170A
:100120008800831287018801890183130313192032
:10013000282036202820362028205320282053200D
:0E014000282019206B2019206B2097286300BF
:04400E00E22FFF3F5F
:00000001FF
;PIC16F887
;CRC=392C  CREATED="13-Mar-20 17:18"
